{
  "_format": "hh-sol-artifact-1",
  "contractName": "WavePortal",
  "sourceName": "contracts/WavePortal.sol",
  "abi": [
    {
      "inputs": [],
      "stateMutability": "nonpayable",
      "type": "constructor"
    },
    {
      "inputs": [],
      "name": "getTotalWaves",
      "outputs": [
        {
          "internalType": "uint256",
          "name": "",
          "type": "uint256"
        }
      ],
      "stateMutability": "view",
      "type": "function"
    },
    {
      "inputs": [],
      "name": "getWavers",
      "outputs": [
        {
          "internalType": "address[]",
          "name": "",
          "type": "address[]"
        }
      ],
      "stateMutability": "view",
      "type": "function"
    },
    {
      "inputs": [],
      "name": "wave",
      "outputs": [],
      "stateMutability": "nonpayable",
      "type": "function"
    }
  ],
  "bytecode": "0x608060405234801561001057600080fd5b5061003c604051806060016040528060258152602001610a2a6025913961004160201b6102e91760201c565b6101c4565b6100dd816040516024016100559190610142565b6040516020818303038152906040527f41304fac000000000000000000000000000000000000000000000000000000007bffffffffffffffffffffffffffffffffffffffffffffffffffffffff19166020820180517bffffffffffffffffffffffffffffffffffffffffffffffffffffffff83818316178352505050506100e060201b60201c565b50565b60008151905060006a636f6e736f6c652e6c6f679050602083016000808483855afa5050505050565b600061011482610164565b61011e818561016f565b935061012e818560208601610180565b610137816101b3565b840191505092915050565b6000602082019050818103600083015261015c8184610109565b905092915050565b600081519050919050565b600082825260208201905092915050565b60005b8381101561019e578082015181840152602081019050610183565b838111156101ad576000848401525b50505050565b6000601f19601f8301169050919050565b610857806101d36000396000f3fe608060405234801561001057600080fd5b50600436106100415760003560e01c8063635f29f8146100465780636fe15b44146100645780639a2cdc081461006e575b600080fd5b61004e61008c565b60405161005b91906105bf565b60405180910390f35b61006c6101e1565b005b61007661029e565b6040516100839190610663565b60405180910390f35b606060005b600180549050811015610154576101416040518060400160405280601c81526020017f41646472657373206861766520256420776176656420746f207573210000000081525060018381548110610111577f4e487b7100000000000000000000000000000000000000000000000000000000600052603260045260246000fd5b9060005260206000200160009054906101000a900473ffffffffffffffffffffffffffffffffffffffff16610382565b808061014c90610798565b915050610091565b5060018054806020026020016040519081016040528092919081815260200182805480156101d757602002820191906000526020600020905b8160009054906101000a900473ffffffffffffffffffffffffffffffffffffffff1673ffffffffffffffffffffffffffffffffffffffff168152602001906001019080831161018d575b5050505050905090565b60016000808282546101f391906106d3565b925050819055506001339080600181540180825580915050600190039060005260206000200160009091909190916101000a81548173ffffffffffffffffffffffffffffffffffffffff021916908373ffffffffffffffffffffffffffffffffffffffff16021790555061029c6040518060400160405280600d81526020017f257320686173207761766564210000000000000000000000000000000000000081525033610382565b565b60006102e16040518060400160405280601781526020017f5765206861766520256420746f74616c2077617665732100000000000000000081525060005461041e565b600054905090565b61037f816040516024016102fd91906105e1565b6040516020818303038152906040527f41304fac000000000000000000000000000000000000000000000000000000007bffffffffffffffffffffffffffffffffffffffffffffffffffffffff19166020820180517bffffffffffffffffffffffffffffffffffffffffffffffffffffffff83818316178352505050506104ba565b50565b61041a8282604051602401610398929190610603565b6040516020818303038152906040527f319af333000000000000000000000000000000000000000000000000000000007bffffffffffffffffffffffffffffffffffffffffffffffffffffffff19166020820180517bffffffffffffffffffffffffffffffffffffffffffffffffffffffff83818316178352505050506104ba565b5050565b6104b68282604051602401610434929190610633565b6040516020818303038152906040527f9710a9d0000000000000000000000000000000000000000000000000000000007bffffffffffffffffffffffffffffffffffffffffffffffffffffffff19166020820180517bffffffffffffffffffffffffffffffffffffffffffffffffffffffff83818316178352505050506104ba565b5050565b60008151905060006a636f6e736f6c652e6c6f679050602083016000808483855afa5050505050565b60006104ef83836104fb565b60208301905092915050565b61050481610729565b82525050565b61051381610729565b82525050565b60006105248261068e565b61052e81856106b1565b93506105398361067e565b8060005b8381101561056a57815161055188826104e3565b975061055c836106a4565b92505060018101905061053d565b5085935050505092915050565b600061058282610699565b61058c81856106c2565b935061059c818560208601610765565b6105a581610810565b840191505092915050565b6105b98161075b565b82525050565b600060208201905081810360008301526105d98184610519565b905092915050565b600060208201905081810360008301526105fb8184610577565b905092915050565b6000604082019050818103600083015261061d8185610577565b905061062c602083018461050a565b9392505050565b6000604082019050818103600083015261064d8185610577565b905061065c60208301846105b0565b9392505050565b600060208201905061067860008301846105b0565b92915050565b6000819050602082019050919050565b600081519050919050565b600081519050919050565b6000602082019050919050565b600082825260208201905092915050565b600082825260208201905092915050565b60006106de8261075b565b91506106e98361075b565b9250827fffffffffffffffffffffffffffffffffffffffffffffffffffffffffffffffff0382111561071e5761071d6107e1565b5b828201905092915050565b60006107348261073b565b9050919050565b600073ffffffffffffffffffffffffffffffffffffffff82169050919050565b6000819050919050565b60005b83811015610783578082015181840152602081019050610768565b83811115610792576000848401525b50505050565b60006107a38261075b565b91507fffffffffffffffffffffffffffffffffffffffffffffffffffffffffffffffff8214156107d6576107d56107e1565b5b600182019050919050565b7f4e487b7100000000000000000000000000000000000000000000000000000000600052601160045260246000fd5b6000601f19601f830116905091905056fea2646970667358221220852e637d0c6959d6e35fbc40e2bf3768d0ed2a670adf8afdc1c921c0da745e5e64736f6c63430008040033596f20796f2c204920616d206120636f6e747261637420616e64204920616d20736d617274",
  "linkReferences": {},
  "deployedLinkReferences": {}
}